{
  "contractName": "StreamContract",
  "abi": [
    {
      "inputs": [],
      "stateMutability": "nonpayable",
      "type": "constructor"
    },
    {
      "inputs": [],
      "name": "contentId",
      "outputs": [
        {
          "internalType": "uint256",
          "name": "",
          "type": "uint256"
        }
      ],
      "stateMutability": "view",
      "type": "function",
      "constant": true
    },
    {
      "inputs": [
        {
          "internalType": "uint256",
          "name": "",
          "type": "uint256"
        }
      ],
      "name": "contents",
      "outputs": [
        {
          "internalType": "string",
          "name": "fileLocation",
          "type": "string"
        },
        {
          "internalType": "uint256",
          "name": "price",
          "type": "uint256"
        },
        {
          "internalType": "address payable",
          "name": "owner",
          "type": "address"
        }
      ],
      "stateMutability": "view",
      "type": "function",
      "constant": true
    },
    {
      "inputs": [
        {
          "internalType": "string",
          "name": "fileLocation",
          "type": "string"
        },
        {
          "internalType": "uint256",
          "name": "price",
          "type": "uint256"
        }
      ],
      "name": "addFile",
      "outputs": [
        {
          "internalType": "uint256",
          "name": "",
          "type": "uint256"
        }
      ],
      "stateMutability": "nonpayable",
      "type": "function"
    },
    {
      "inputs": [
        {
          "internalType": "uint256",
          "name": "id",
          "type": "uint256"
        }
      ],
      "name": "getUserWithAccess",
      "outputs": [
        {
          "internalType": "address[]",
          "name": "",
          "type": "address[]"
        }
      ],
      "stateMutability": "view",
      "type": "function",
      "constant": true
    },
    {
      "inputs": [],
      "name": "getUsersPurchases",
      "outputs": [
        {
          "internalType": "uint256[]",
          "name": "",
          "type": "uint256[]"
        }
      ],
      "stateMutability": "view",
      "type": "function",
      "constant": true
    },
    {
      "inputs": [],
      "name": "getUsersAddedContents",
      "outputs": [
        {
          "internalType": "uint256[]",
          "name": "",
          "type": "uint256[]"
        }
      ],
      "stateMutability": "view",
      "type": "function",
      "constant": true
    },
    {
      "inputs": [
        {
          "internalType": "uint256",
          "name": "id",
          "type": "uint256"
        }
      ],
      "name": "getOwner",
      "outputs": [
        {
          "internalType": "address",
          "name": "",
          "type": "address"
        }
      ],
      "stateMutability": "view",
      "type": "function",
      "constant": true
    },
    {
      "inputs": [
        {
          "internalType": "uint256",
          "name": "id",
          "type": "uint256"
        }
      ],
      "name": "giveAccess",
      "outputs": [],
      "stateMutability": "nonpayable",
      "type": "function"
    },
    {
      "inputs": [
        {
          "internalType": "uint256",
          "name": "id",
          "type": "uint256"
        },
        {
          "internalType": "address",
          "name": "userAddress",
          "type": "address"
        }
      ],
      "name": "checkAccess",
      "outputs": [
        {
          "internalType": "bool",
          "name": "",
          "type": "bool"
        }
      ],
      "stateMutability": "view",
      "type": "function",
      "constant": true
    },
    {
      "inputs": [
        {
          "internalType": "uint256",
          "name": "id",
          "type": "uint256"
        }
      ],
      "name": "payPrice",
      "outputs": [
        {
          "internalType": "bool",
          "name": "",
          "type": "bool"
        }
      ],
      "stateMutability": "payable",
      "type": "function",
      "payable": true
    }
  ],
  "bytecode": "0x608060405234801561001057600080fd5b50600080819055506114f0806100276000396000f3fe6080604052600436106100915760003560e01c8063c41a360a11610059578063c41a360a14610191578063d13c8703146101ce578063d97aa9771461020b578063e409725314610236578063fb8c379d1461026657610091565b806308d80cd314610096578063522139df146100bf5780635d483a3a146100ea57806364c6be2b14610115578063b5ecf91214610152575b600080fd5b3480156100a257600080fd5b506100bd60048036038101906100b89190610daa565b6102a3565b005b3480156100cb57600080fd5b506100d4610386565b6040516100e19190610e95565b60405180910390f35b3480156100f657600080fd5b506100ff61041e565b60405161010c9190610e95565b60405180910390f35b34801561012157600080fd5b5061013c60048036038101906101379190610ffd565b6104b6565b6040516101499190611068565b60405180910390f35b34801561015e57600080fd5b5061017960048036038101906101749190610daa565b61084d565b6040516101889392919061114c565b60405180910390f35b34801561019d57600080fd5b506101b860048036038101906101b39190610daa565b61091f565b6040516101c591906111ab565b60405180910390f35b3480156101da57600080fd5b506101f560048036038101906101f091906111f2565b61095f565b604051610202919061124d565b60405180910390f35b34801561021757600080fd5b50610220610a36565b60405161022d9190611068565b60405180910390f35b610250600480360381019061024b9190610daa565b610a3c565b60405161025d919061124d565b60405180910390f35b34801561027257600080fd5b5061028d60048036038101906102889190610daa565b610b42565b60405161029a9190611326565b60405180910390f35b60046000828152602001908152602001600020600301339080600181540180825580915050600190039060005260206000200160009091909190916101000a81548173ffffffffffffffffffffffffffffffffffffffff021916908373ffffffffffffffffffffffffffffffffffffffff160217905550600560003373ffffffffffffffffffffffffffffffffffffffff1673ffffffffffffffffffffffffffffffffffffffff16815260200190815260200160002060010181908060018154018082558091505060019003906000526020600020016000909190919091505550565b6060600560003373ffffffffffffffffffffffffffffffffffffffff1673ffffffffffffffffffffffffffffffffffffffff16815260200190815260200160002060010180548060200260200160405190810160405280929190818152602001828054801561041457602002820191906000526020600020905b815481526020019060010190808311610400575b5050505050905090565b6060600560003373ffffffffffffffffffffffffffffffffffffffff1673ffffffffffffffffffffffffffffffffffffffff1681526020019081526020016000206000018054806020026020016040519081016040528092919081815260200182805480156104ac57602002820191906000526020600020905b815481526020019060010190808311610498575b5050505050905090565b60008060008154809291906104ca90611377565b919050555060405180608001604052808481526020018381526020013373ffffffffffffffffffffffffffffffffffffffff168152602001600180548060200260200160405190810160405280929190818152602001828054801561058457602002820191906000526020600020905b8160009054906101000a900473ffffffffffffffffffffffffffffffffffffffff1673ffffffffffffffffffffffffffffffffffffffff168152602001906001019080831161053a575b5050505050815250600460008054815260200190815260200160002060008201518160000190805190602001906105bc929190610be6565b506020820151816001015560408201518160020160006101000a81548173ffffffffffffffffffffffffffffffffffffffff021916908373ffffffffffffffffffffffffffffffffffffffff160217905550606082015181600301908051906020019061062a929190610c6c565b509050506004600080548152602001908152602001600020600301339080600181540180825580915050600190039060005260206000200160009091909190916101000a81548173ffffffffffffffffffffffffffffffffffffffff021916908373ffffffffffffffffffffffffffffffffffffffff160217905550604051806040016040528060028054806020026020016040519081016040528092919081815260200182805480156106fd57602002820191906000526020600020905b8154815260200190600101908083116106e9575b50505050508152602001600380548060200260200160405190810160405280929190818152602001828054801561075357602002820191906000526020600020905b81548152602001906001019080831161073f575b5050505050815250600560003373ffffffffffffffffffffffffffffffffffffffff1673ffffffffffffffffffffffffffffffffffffffff16815260200190815260200160002060008201518160000190805190602001906107b6929190610cf6565b5060208201518160010190805190602001906107d3929190610cf6565b50905050600560003373ffffffffffffffffffffffffffffffffffffffff1673ffffffffffffffffffffffffffffffffffffffff1681526020019081526020016000206000016000549080600181540180825580915050600190039060005260206000200160009091909190915055600054905092915050565b6004602052806000526040600020600091509050806000018054610870906113ee565b80601f016020809104026020016040519081016040528092919081815260200182805461089c906113ee565b80156108e95780601f106108be576101008083540402835291602001916108e9565b820191906000526020600020905b8154815290600101906020018083116108cc57829003601f168201915b5050505050908060010154908060020160009054906101000a900473ffffffffffffffffffffffffffffffffffffffff16905083565b60006004600083815260200190815260200160002060020160009054906101000a900473ffffffffffffffffffffffffffffffffffffffff169050919050565b600080600090505b6004600085815260200190815260200160002060030180549050811015610a2a578273ffffffffffffffffffffffffffffffffffffffff166004600086815260200190815260200160002060030182815481106109c7576109c661141f565b5b9060005260206000200160009054906101000a900473ffffffffffffffffffffffffffffffffffffffff1673ffffffffffffffffffffffffffffffffffffffff1603610a17576001915050610a30565b8080610a2290611377565b915050610967565b50600090505b92915050565b60005481565b60006004600083815260200190815260200160002060010154341015610a97576040517f08c379a0000000000000000000000000000000000000000000000000000000008152600401610a8e9061149a565b60405180910390fd5b60006004600084815260200190815260200160002060020160009054906101000a900473ffffffffffffffffffffffffffffffffffffffff1690508073ffffffffffffffffffffffffffffffffffffffff166108fc60046000868152602001908152602001600020600101549081150290604051600060405180830381858888f19350505050158015610b2e573d6000803e3d6000fd5b50610b38836102a3565b6001915050919050565b606060046000838152602001908152602001600020600301805480602002602001604051908101604052809291908181526020018280548015610bda57602002820191906000526020600020905b8160009054906101000a900473ffffffffffffffffffffffffffffffffffffffff1673ffffffffffffffffffffffffffffffffffffffff1681526020019060010190808311610b90575b50505050509050919050565b828054610bf2906113ee565b90600052602060002090601f016020900481019282610c145760008555610c5b565b82601f10610c2d57805160ff1916838001178555610c5b565b82800160010185558215610c5b579182015b82811115610c5a578251825591602001919060010190610c3f565b5b509050610c689190610d43565b5090565b828054828255906000526020600020908101928215610ce5579160200282015b82811115610ce45782518260006101000a81548173ffffffffffffffffffffffffffffffffffffffff021916908373ffffffffffffffffffffffffffffffffffffffff16021790555091602001919060010190610c8c565b5b509050610cf29190610d43565b5090565b828054828255906000526020600020908101928215610d32579160200282015b82811115610d31578251825591602001919060010190610d16565b5b509050610d3f9190610d43565b5090565b5b80821115610d5c576000816000905550600101610d44565b5090565b6000604051905090565b600080fd5b600080fd5b6000819050919050565b610d8781610d74565b8114610d9257600080fd5b50565b600081359050610da481610d7e565b92915050565b600060208284031215610dc057610dbf610d6a565b5b6000610dce84828501610d95565b91505092915050565b600081519050919050565b600082825260208201905092915050565b6000819050602082019050919050565b610e0c81610d74565b82525050565b6000610e1e8383610e03565b60208301905092915050565b6000602082019050919050565b6000610e4282610dd7565b610e4c8185610de2565b9350610e5783610df3565b8060005b83811015610e88578151610e6f8882610e12565b9750610e7a83610e2a565b925050600181019050610e5b565b5085935050505092915050565b60006020820190508181036000830152610eaf8184610e37565b905092915050565b600080fd5b600080fd5b6000601f19601f8301169050919050565b7f4e487b7100000000000000000000000000000000000000000000000000000000600052604160045260246000fd5b610f0a82610ec1565b810181811067ffffffffffffffff82111715610f2957610f28610ed2565b5b80604052505050565b6000610f3c610d60565b9050610f488282610f01565b919050565b600067ffffffffffffffff821115610f6857610f67610ed2565b5b610f7182610ec1565b9050602081019050919050565b82818337600083830152505050565b6000610fa0610f9b84610f4d565b610f32565b905082815260208101848484011115610fbc57610fbb610ebc565b5b610fc7848285610f7e565b509392505050565b600082601f830112610fe457610fe3610eb7565b5b8135610ff4848260208601610f8d565b91505092915050565b6000806040838503121561101457611013610d6a565b5b600083013567ffffffffffffffff81111561103257611031610d6f565b5b61103e85828601610fcf565b925050602061104f85828601610d95565b9150509250929050565b61106281610d74565b82525050565b600060208201905061107d6000830184611059565b92915050565b600081519050919050565b600082825260208201905092915050565b60005b838110156110bd5780820151818401526020810190506110a2565b838111156110cc576000848401525b50505050565b60006110dd82611083565b6110e7818561108e565b93506110f781856020860161109f565b61110081610ec1565b840191505092915050565b600073ffffffffffffffffffffffffffffffffffffffff82169050919050565b60006111368261110b565b9050919050565b6111468161112b565b82525050565b6000606082019050818103600083015261116681866110d2565b90506111756020830185611059565b611182604083018461113d565b949350505050565b60006111958261110b565b9050919050565b6111a58161118a565b82525050565b60006020820190506111c0600083018461119c565b92915050565b6111cf8161118a565b81146111da57600080fd5b50565b6000813590506111ec816111c6565b92915050565b6000806040838503121561120957611208610d6a565b5b600061121785828601610d95565b9250506020611228858286016111dd565b9150509250929050565b60008115159050919050565b61124781611232565b82525050565b6000602082019050611262600083018461123e565b92915050565b600081519050919050565b600082825260208201905092915050565b6000819050602082019050919050565b61129d8161118a565b82525050565b60006112af8383611294565b60208301905092915050565b6000602082019050919050565b60006112d382611268565b6112dd8185611273565b93506112e883611284565b8060005b8381101561131957815161130088826112a3565b975061130b836112bb565b9250506001810190506112ec565b5085935050505092915050565b6000602082019050818103600083015261134081846112c8565b905092915050565b7f4e487b7100000000000000000000000000000000000000000000000000000000600052601160045260246000fd5b600061138282610d74565b91507fffffffffffffffffffffffffffffffffffffffffffffffffffffffffffffffff82036113b4576113b3611348565b5b600182019050919050565b7f4e487b7100000000000000000000000000000000000000000000000000000000600052602260045260246000fd5b6000600282049050600182168061140657607f821691505b602082108103611419576114186113bf565b5b50919050565b7f4e487b7100000000000000000000000000000000000000000000000000000000600052603260045260246000fd5b7f4e6f7420656e6f75676820457468657200000000000000000000000000000000600082015250565b600061148460108361108e565b915061148f8261144e565b602082019050919050565b600060208201905081810360008301526114b381611477565b905091905056fea26469706673582212200163e371017dcfccda425fba04ac6fa37117e3233652176ea448f2e240450ddf64736f6c634300080e0033",
  "immutableReferences": {},
  "source": "// SPDX-License-Identifier: MIT\npragma solidity >=0.4.22 <0.9.0;\n\ncontract StreamContract {\n\n  struct ContentInfo {\n    string fileLocation;\n    uint price;\n    address payable owner;\n    address[] usersWithAccess;\n    // mapping(uint => address[]) usersWithAccess;\n  }\n\n  struct UserInfo {\n    uint[] addedContentsId;\n    uint[] boughtContentsId;\n  }\n\n  uint public contentId;\n  address[] usersWithAccess;\n  uint[] addedContentsId;\n  uint[] boughtContentsId;\n\n  mapping(uint => ContentInfo) public contents;\n  mapping(address => UserInfo) users;\n\n  constructor() {\n    contentId = 0;\n  }\n\n  function addFile(string memory fileLocation, uint price) public returns (uint) {\n\n    contentId++;\n\n    contents[contentId] = ContentInfo(\n      fileLocation,\n      price,\n      payable(msg.sender),\n      usersWithAccess\n    );\n    contents[contentId].usersWithAccess.push(msg.sender);\n\n    users[msg.sender] = UserInfo(\n      addedContentsId,\n      boughtContentsId\n    );\n    users[msg.sender].addedContentsId.push(contentId);\n\n    return contentId;\n  }\n\n  function getUserWithAccess(uint id) public view returns (address[] memory) {\n    return contents[id].usersWithAccess;\n  }\n\n  function getUsersPurchases() public view returns (uint[] memory) {\n    return users[msg.sender].boughtContentsId;\n  }\n\n  function getUsersAddedContents() public view returns (uint[] memory) {\n    return users[msg.sender].addedContentsId;\n  }\n\n  function getOwner(uint id) public view returns (address) {\n    return contents[id].owner;\n  }\n\n  function giveAccess(uint id) public {\n    contents[id].usersWithAccess.push(msg.sender);\n\n    users[msg.sender].boughtContentsId.push(id);\n  }\n\n  function checkAccess(uint id, address userAddress) public view returns (bool) {\n    for (uint i = 0; i < contents[id].usersWithAccess.length; i++) {\n      if (contents[id].usersWithAccess[i] == userAddress) {\n        return true;\n      }\n    }\n    return false;\n  }\n\n  function payPrice(uint id) public payable returns(bool) {\n    require(msg.value >= contents[id].price, \"Not enough Ether\");\n    address payable owner = contents[id].owner;\n    owner.transfer(contents[id].price);\n\n    giveAccess(id);\n\n    return true;\n  }\n}",
  "sourcePath": "/Users/rishavgoenka/Desktop/DTB/course_project/src/backend/contracts/SteamContract.sol",
  "compiler": {
    "name": "solc",
    "version": "0.8.14+commit.80d49f37.Emscripten.clang"
  },
  "schemaVersion": "3.4.7",
  "updatedAt": "2022-12-01T06:16:26.118Z",
  "networkType": "ethereum",
  "devdoc": {
    "kind": "dev",
    "methods": {},
    "version": 1
  },
  "userdoc": {
    "kind": "user",
    "methods": {},
    "version": 1
  }
}