{
  "contractName": "SupplyChain",
  "abi": [
    {
      "inputs": [],
      "stateMutability": "nonpayable",
      "type": "constructor"
    },
    {
      "inputs": [
        {
          "internalType": "uint256",
          "name": "",
          "type": "uint256"
        }
      ],
      "name": "carBodyWithMaruti",
      "outputs": [
        {
          "internalType": "uint256",
          "name": "id",
          "type": "uint256"
        },
        {
          "internalType": "string",
          "name": "owner",
          "type": "string"
        },
        {
          "internalType": "string",
          "name": "supplierName",
          "type": "string"
        },
        {
          "internalType": "uint256",
          "name": "price",
          "type": "uint256"
        }
      ],
      "stateMutability": "view",
      "type": "function",
      "constant": true
    },
    {
      "inputs": [
        {
          "internalType": "uint256",
          "name": "",
          "type": "uint256"
        }
      ],
      "name": "carBodyWithTata",
      "outputs": [
        {
          "internalType": "uint256",
          "name": "id",
          "type": "uint256"
        },
        {
          "internalType": "string",
          "name": "owner",
          "type": "string"
        },
        {
          "internalType": "string",
          "name": "supplierName",
          "type": "string"
        },
        {
          "internalType": "uint256",
          "name": "price",
          "type": "uint256"
        }
      ],
      "stateMutability": "view",
      "type": "function",
      "constant": true
    },
    {
      "inputs": [
        {
          "internalType": "uint256",
          "name": "",
          "type": "uint256"
        }
      ],
      "name": "carsWithMaruti",
      "outputs": [
        {
          "internalType": "uint256",
          "name": "id",
          "type": "uint256"
        },
        {
          "internalType": "string",
          "name": "manufacturerName",
          "type": "string"
        },
        {
          "components": [
            {
              "internalType": "uint256",
              "name": "id",
              "type": "uint256"
            },
            {
              "internalType": "string",
              "name": "owner",
              "type": "string"
            },
            {
              "internalType": "string",
              "name": "supplierName",
              "type": "string"
            },
            {
              "internalType": "uint256",
              "name": "price",
              "type": "uint256"
            }
          ],
          "internalType": "struct SupplyChain.Wheel",
          "name": "wheel",
          "type": "tuple"
        },
        {
          "components": [
            {
              "internalType": "uint256",
              "name": "id",
              "type": "uint256"
            },
            {
              "internalType": "string",
              "name": "owner",
              "type": "string"
            },
            {
              "internalType": "string",
              "name": "supplierName",
              "type": "string"
            },
            {
              "internalType": "uint256",
              "name": "price",
              "type": "uint256"
            }
          ],
          "internalType": "struct SupplyChain.CarBody",
          "name": "carBody",
          "type": "tuple"
        },
        {
          "internalType": "uint256",
          "name": "price",
          "type": "uint256"
        },
        {
          "internalType": "bool",
          "name": "isOwned",
          "type": "bool"
        }
      ],
      "stateMutability": "view",
      "type": "function",
      "constant": true
    },
    {
      "inputs": [
        {
          "internalType": "uint256",
          "name": "",
          "type": "uint256"
        }
      ],
      "name": "carsWithTata",
      "outputs": [
        {
          "internalType": "uint256",
          "name": "id",
          "type": "uint256"
        },
        {
          "internalType": "string",
          "name": "manufacturerName",
          "type": "string"
        },
        {
          "components": [
            {
              "internalType": "uint256",
              "name": "id",
              "type": "uint256"
            },
            {
              "internalType": "string",
              "name": "owner",
              "type": "string"
            },
            {
              "internalType": "string",
              "name": "supplierName",
              "type": "string"
            },
            {
              "internalType": "uint256",
              "name": "price",
              "type": "uint256"
            }
          ],
          "internalType": "struct SupplyChain.Wheel",
          "name": "wheel",
          "type": "tuple"
        },
        {
          "components": [
            {
              "internalType": "uint256",
              "name": "id",
              "type": "uint256"
            },
            {
              "internalType": "string",
              "name": "owner",
              "type": "string"
            },
            {
              "internalType": "string",
              "name": "supplierName",
              "type": "string"
            },
            {
              "internalType": "uint256",
              "name": "price",
              "type": "uint256"
            }
          ],
          "internalType": "struct SupplyChain.CarBody",
          "name": "carBody",
          "type": "tuple"
        },
        {
          "internalType": "uint256",
          "name": "price",
          "type": "uint256"
        },
        {
          "internalType": "bool",
          "name": "isOwned",
          "type": "bool"
        }
      ],
      "stateMutability": "view",
      "type": "function",
      "constant": true
    },
    {
      "inputs": [
        {
          "internalType": "string",
          "name": "",
          "type": "string"
        }
      ],
      "name": "clients",
      "outputs": [
        {
          "internalType": "address",
          "name": "",
          "type": "address"
        }
      ],
      "stateMutability": "view",
      "type": "function",
      "constant": true
    },
    {
      "inputs": [],
      "name": "owner",
      "outputs": [
        {
          "internalType": "address",
          "name": "",
          "type": "address"
        }
      ],
      "stateMutability": "view",
      "type": "function",
      "constant": true
    },
    {
      "inputs": [
        {
          "internalType": "string",
          "name": "",
          "type": "string"
        }
      ],
      "name": "supplierLimit",
      "outputs": [
        {
          "internalType": "uint256",
          "name": "",
          "type": "uint256"
        }
      ],
      "stateMutability": "view",
      "type": "function",
      "constant": true
    },
    {
      "inputs": [
        {
          "internalType": "uint256",
          "name": "",
          "type": "uint256"
        }
      ],
      "name": "wheelWithMaruti",
      "outputs": [
        {
          "internalType": "uint256",
          "name": "id",
          "type": "uint256"
        },
        {
          "internalType": "string",
          "name": "owner",
          "type": "string"
        },
        {
          "internalType": "string",
          "name": "supplierName",
          "type": "string"
        },
        {
          "internalType": "uint256",
          "name": "price",
          "type": "uint256"
        }
      ],
      "stateMutability": "view",
      "type": "function",
      "constant": true
    },
    {
      "inputs": [
        {
          "internalType": "uint256",
          "name": "",
          "type": "uint256"
        }
      ],
      "name": "wheelWithTata",
      "outputs": [
        {
          "internalType": "uint256",
          "name": "id",
          "type": "uint256"
        },
        {
          "internalType": "string",
          "name": "owner",
          "type": "string"
        },
        {
          "internalType": "string",
          "name": "supplierName",
          "type": "string"
        },
        {
          "internalType": "uint256",
          "name": "price",
          "type": "uint256"
        }
      ],
      "stateMutability": "view",
      "type": "function",
      "constant": true
    },
    {
      "inputs": [
        {
          "internalType": "string",
          "name": "clientName",
          "type": "string"
        },
        {
          "internalType": "address",
          "name": "clientAddress",
          "type": "address"
        }
      ],
      "name": "setClient",
      "outputs": [],
      "stateMutability": "nonpayable",
      "type": "function"
    },
    {
      "inputs": [
        {
          "internalType": "string",
          "name": "clientName",
          "type": "string"
        }
      ],
      "name": "getClient",
      "outputs": [
        {
          "internalType": "address",
          "name": "",
          "type": "address"
        }
      ],
      "stateMutability": "view",
      "type": "function",
      "constant": true
    },
    {
      "inputs": [
        {
          "internalType": "string",
          "name": "supplierName",
          "type": "string"
        },
        {
          "internalType": "uint256",
          "name": "supplyLimit",
          "type": "uint256"
        }
      ],
      "name": "setSupplierLimit",
      "outputs": [],
      "stateMutability": "nonpayable",
      "type": "function"
    },
    {
      "inputs": [
        {
          "internalType": "string",
          "name": "supplierName",
          "type": "string"
        }
      ],
      "name": "getSupplierLimit",
      "outputs": [
        {
          "internalType": "uint256",
          "name": "",
          "type": "uint256"
        }
      ],
      "stateMutability": "view",
      "type": "function",
      "constant": true
    },
    {
      "inputs": [
        {
          "internalType": "string",
          "name": "supplierName",
          "type": "string"
        }
      ],
      "name": "getCeatBid",
      "outputs": [
        {
          "components": [
            {
              "internalType": "uint256",
              "name": "price",
              "type": "uint256"
            },
            {
              "internalType": "uint256",
              "name": "quantity",
              "type": "uint256"
            }
          ],
          "internalType": "struct SupplyChain.Bid",
          "name": "",
          "type": "tuple"
        }
      ],
      "stateMutability": "view",
      "type": "function",
      "constant": true
    },
    {
      "inputs": [
        {
          "internalType": "string",
          "name": "supplierName",
          "type": "string"
        }
      ],
      "name": "getMRFBid",
      "outputs": [
        {
          "components": [
            {
              "internalType": "uint256",
              "name": "price",
              "type": "uint256"
            },
            {
              "internalType": "uint256",
              "name": "quantity",
              "type": "uint256"
            }
          ],
          "internalType": "struct SupplyChain.Bid",
          "name": "",
          "type": "tuple"
        }
      ],
      "stateMutability": "view",
      "type": "function",
      "constant": true
    },
    {
      "inputs": [
        {
          "internalType": "string",
          "name": "supplierName",
          "type": "string"
        }
      ],
      "name": "getVedantaBid",
      "outputs": [
        {
          "components": [
            {
              "internalType": "uint256",
              "name": "price",
              "type": "uint256"
            },
            {
              "internalType": "uint256",
              "name": "quantity",
              "type": "uint256"
            }
          ],
          "internalType": "struct SupplyChain.Bid",
          "name": "",
          "type": "tuple"
        }
      ],
      "stateMutability": "view",
      "type": "function",
      "constant": true
    },
    {
      "inputs": [
        {
          "internalType": "string",
          "name": "bidderName",
          "type": "string"
        },
        {
          "internalType": "uint256",
          "name": "price",
          "type": "uint256"
        },
        {
          "internalType": "uint256",
          "name": "quantity",
          "type": "uint256"
        }
      ],
      "name": "setBidForVedanta",
      "outputs": [],
      "stateMutability": "payable",
      "type": "function",
      "payable": true
    },
    {
      "inputs": [
        {
          "internalType": "string",
          "name": "bidderName",
          "type": "string"
        },
        {
          "internalType": "uint256",
          "name": "price",
          "type": "uint256"
        },
        {
          "internalType": "uint256",
          "name": "quantity",
          "type": "uint256"
        }
      ],
      "name": "setBidForMRF",
      "outputs": [],
      "stateMutability": "payable",
      "type": "function",
      "payable": true
    },
    {
      "inputs": [
        {
          "internalType": "string",
          "name": "bidderName",
          "type": "string"
        },
        {
          "internalType": "uint256",
          "name": "price",
          "type": "uint256"
        },
        {
          "internalType": "uint256",
          "name": "quantity",
          "type": "uint256"
        }
      ],
      "name": "setBidForCeat",
      "outputs": [],
      "stateMutability": "payable",
      "type": "function",
      "payable": true
    },
    {
      "inputs": [],
      "name": "distributeOptimally",
      "outputs": [],
      "stateMutability": "nonpayable",
      "type": "function"
    },
    {
      "inputs": [],
      "name": "manufactureCars",
      "outputs": [],
      "stateMutability": "nonpayable",
      "type": "function"
    },
    {
      "inputs": [
        {
          "internalType": "string",
          "name": "manufacturerName",
          "type": "string"
        }
      ],
      "name": "getManufacturedCarsLimit",
      "outputs": [
        {
          "internalType": "uint256",
          "name": "",
          "type": "uint256"
        }
      ],
      "stateMutability": "view",
      "type": "function",
      "constant": true
    },
    {
      "inputs": [
        {
          "internalType": "string",
          "name": "buyerName",
          "type": "string"
        },
        {
          "internalType": "string",
          "name": "manufacturerName",
          "type": "string"
        }
      ],
      "name": "purchaseCar",
      "outputs": [
        {
          "internalType": "uint256",
          "name": "",
          "type": "uint256"
        }
      ],
      "stateMutability": "nonpayable",
      "type": "function"
    },
    {
      "inputs": [
        {
          "internalType": "string",
          "name": "customerName",
          "type": "string"
        }
      ],
      "name": "checkCarIndexOwnedByCustomer",
      "outputs": [
        {
          "internalType": "uint256[]",
          "name": "",
          "type": "uint256[]"
        }
      ],
      "stateMutability": "view",
      "type": "function",
      "constant": true
    },
    {
      "inputs": [
        {
          "internalType": "uint256",
          "name": "carIndex",
          "type": "uint256"
        }
      ],
      "name": "checkCarDetails",
      "outputs": [
        {
          "components": [
            {
              "internalType": "uint256",
              "name": "id",
              "type": "uint256"
            },
            {
              "internalType": "string",
              "name": "manufacturerName",
              "type": "string"
            },
            {
              "components": [
                {
                  "internalType": "uint256",
                  "name": "id",
                  "type": "uint256"
                },
                {
                  "internalType": "string",
                  "name": "owner",
                  "type": "string"
                },
                {
                  "internalType": "string",
                  "name": "supplierName",
                  "type": "string"
                },
                {
                  "internalType": "uint256",
                  "name": "price",
                  "type": "uint256"
                }
              ],
              "internalType": "struct SupplyChain.Wheel",
              "name": "wheel",
              "type": "tuple"
            },
            {
              "components": [
                {
                  "internalType": "uint256",
                  "name": "id",
                  "type": "uint256"
                },
                {
                  "internalType": "string",
                  "name": "owner",
                  "type": "string"
                },
                {
                  "internalType": "string",
                  "name": "supplierName",
                  "type": "string"
                },
                {
                  "internalType": "uint256",
                  "name": "price",
                  "type": "uint256"
                }
              ],
              "internalType": "struct SupplyChain.CarBody",
              "name": "carBody",
              "type": "tuple"
            },
            {
              "internalType": "uint256",
              "name": "price",
              "type": "uint256"
            },
            {
              "internalType": "bool",
              "name": "isOwned",
              "type": "bool"
            }
          ],
          "internalType": "struct SupplyChain.Car",
          "name": "",
          "type": "tuple"
        }
      ],
      "stateMutability": "view",
      "type": "function",
      "constant": true
    }
  ],
  "bytecode": "0x60806040523480156200001157600080fd5b5033600060026101000a81548173ffffffffffffffffffffffffffffffffffffffff021916908373ffffffffffffffffffffffffffffffffffffffff16021790555060008060006101000a81548160ff02191690831515021790555060008060016101000a81548160ff0219169083151502179055506000600481905550600060058190555060018081905550600160028190555060016003819055506000600b604051620000c090620001eb565b908152602001604051809103902060006101000a81548160ff0219169083151502179055506000600d604051620000f790620001eb565b908152602001604051809103902060006101000a81548160ff0219169083151502179055506000600d6040516200012e9062000252565b908152602001604051809103902060006101000a81548160ff0219169083151502179055506000600c604051620001659062000252565b908152602001604051809103902060006101000a81548160ff02191690831515021790555062000269565b600081905092915050565b7f7461746100000000000000000000000000000000000000000000000000000000600082015250565b6000620001d360048362000190565b9150620001e0826200019b565b600482019050919050565b6000620001f882620001c4565b9150819050919050565b7f6d61727574690000000000000000000000000000000000000000000000000000600082015250565b60006200023a60068362000190565b9150620002478262000202565b600682019050919050565b60006200025f826200022b565b9150819050919050565b615d3680620002796000396000f3fe6080604052600436106101655760003560e01c80637eb78932116100d1578063bec083981161008a578063e77414f911610064578063e77414f91461058d578063eb3a24c3146105cd578063ec573c4b1461060f578063f56bf3f71461064c57610165565b8063bec08398146104fc578063c1a388a914610539578063e26b6b5c1461055057610165565b80637eb789321461039d5780638b9c9dbd146103da5780638da5cb5b14610417578063942f9b0d146104425780639fc473f914610482578063afff7f9d146104bf57610165565b80633e2386a4116101235780633e2386a41461028d57806342d18d9b146102a957806348ee952b146102c5578063688999651461030257806376911bef1461033f5780637753e08e1461038157610165565b8062c0c6921461016a578063065f94ef146101935780630c457670146101d05780631bff1e1b146101e757806320ba1e9f146102105780633d0b7f661461024d575b600080fd5b34801561017657600080fd5b50610191600480360381019061018c9190614bc1565b61068c565b005b34801561019f57600080fd5b506101ba60048036038101906101b59190614c1d565b61077d565b6040516101c79190614cae565b60405180910390f35b3480156101dc57600080fd5b506101e56108c8565b005b3480156101f357600080fd5b5061020e60048036038101906102099190614cf5565b61127f565b005b34801561021c57600080fd5b5061023760048036038101906102329190614c1d565b611352565b6040516102449190614d60565b60405180910390f35b34801561025957600080fd5b50610274600480360381019061026f9190614d7b565b61139b565b6040516102849493929190614e3f565b60405180910390f35b6102a760048036038101906102a29190614e92565b6114eb565b005b6102c360048036038101906102be9190614e92565b61166e565b005b3480156102d157600080fd5b506102ec60048036038101906102e79190614c1d565b6117f1565b6040516102f99190614f01565b60405180910390f35b34801561030e57600080fd5b5061032960048036038101906103249190614c1d565b611a62565b6040516103369190614f01565b60405180910390f35b34801561034b57600080fd5b5061036660048036038101906103619190614d7b565b611a8a565b60405161037896959493929190615055565b60405180910390f35b61039b60048036038101906103969190614e92565b611def565b005b3480156103a957600080fd5b506103c460048036038101906103bf9190614c1d565b611f72565b6040516103d19190614d60565b60405180910390f35b3480156103e657600080fd5b5061040160048036038101906103fc9190614c1d565b611fba565b60405161040e9190614f01565b60405180910390f35b34801561042357600080fd5b5061042c611fe8565b6040516104399190614d60565b60405180910390f35b34801561044e57600080fd5b5061046960048036038101906104649190614d7b565b61200e565b6040516104799493929190614e3f565b60405180910390f35b34801561048e57600080fd5b506104a960048036038101906104a49190614c1d565b61215e565b6040516104b69190614cae565b60405180910390f35b3480156104cb57600080fd5b506104e660048036038101906104e191906150cb565b6122a9565b6040516104f39190614f01565b60405180910390f35b34801561050857600080fd5b50610523600480360381019061051e9190614c1d565b6129bc565b60405161053091906151f2565b60405180910390f35b34801561054557600080fd5b5061054e612bdb565b005b34801561055c57600080fd5b5061057760048036038101906105729190614d7b565b6137d9565b604051610584919061538e565b60405180910390f35b34801561059957600080fd5b506105b460048036038101906105af9190614d7b565b61414d565b6040516105c49493929190614e3f565b60405180910390f35b3480156105d957600080fd5b506105f460048036038101906105ef9190614d7b565b61429d565b60405161060696959493929190615055565b60405180910390f35b34801561061b57600080fd5b5061063660048036038101906106319190614c1d565b614602565b6040516106439190614cae565b60405180910390f35b34801561065857600080fd5b50610673600480360381019061066e9190614d7b565b61474d565b6040516106839493929190614e3f565b60405180910390f35b600060029054906101000a900473ffffffffffffffffffffffffffffffffffffffff1673ffffffffffffffffffffffffffffffffffffffff163373ffffffffffffffffffffffffffffffffffffffff161461071c576040517f08c379a000000000000000000000000000000000000000000000000000000000815260040161071390615422565b60405180910390fd5b8060068360405161072d919061547e565b908152602001604051809103902060006101000a81548173ffffffffffffffffffffffffffffffffffffffff021916908373ffffffffffffffffffffffffffffffffffffffff1602179055505050565b6107856148b8565b600b604051610793906154e1565b908152602001604051809103902060009054906101000a900460ff1680156107e15750600d6040516107c4906154e1565b908152602001604051809103902060009054906101000a900460ff165b80156108135750600d6040516107f690615542565b908152602001604051809103902060009054906101000a900460ff165b80156108455750600c60405161082890615542565b908152602001604051809103902060009054906101000a900460ff165b610884576040517f08c379a000000000000000000000000000000000000000000000000000000000815260040161087b906155c9565b60405180910390fd5b600982604051610894919061547e565b9081526020016040518091039020604051806040016040529081600082015481526020016001820154815250509050919050565b600060029054906101000a900473ffffffffffffffffffffffffffffffffffffffff1673ffffffffffffffffffffffffffffffffffffffff163373ffffffffffffffffffffffffffffffffffffffff1614610958576040517f08c379a000000000000000000000000000000000000000000000000000000000815260040161094f90615422565b60405180910390fd5b600b604051610966906154e1565b908152602001604051809103902060009054906101000a900460ff1680156109b45750600d604051610997906154e1565b908152602001604051809103902060009054906101000a900460ff165b80156109e65750600d6040516109c990615542565b908152602001604051809103902060009054906101000a900460ff165b8015610a185750600c6040516109fb90615542565b908152602001604051809103902060009054906101000a900460ff165b610a57576040517f08c379a0000000000000000000000000000000000000000000000000000000008152600401610a4e906155c9565b60405180910390fd5b6000610a9e6007604051610a6a90615635565b9081526020016040518091039020546008604051610a87906154e1565b90815260200160405180910390206001015461489d565b90506000610ae76007604051610ab390615696565b908152602001604051809103902054600a604051610ad090615542565b90815260200160405180910390206001015461489d565b905081600f604051610af8906154e1565b908152602001604051809103902081905550806010604051610b1990615542565b9081526020016040518091039020819055506007604051610b39906156f7565b9081526020016040518091039020548183610b54919061573b565b11610ba05781600e604051610b68906154e1565b90815260200160405180910390208190555080600e604051610b8990615542565b908152602001604051809103902081905550610c71565b60005b6007604051610bb1906156f7565b908152602001604051809103902054811015610c6f576000831115610c18576001600e604051610be0906154e1565b90815260200160405180910390206000828254610bfd919061573b565b92505081905550600183610c119190615791565b9250610c5c565b6001600e604051610c2890615542565b90815260200160405180910390206000828254610c45919061573b565b92505081905550600182610c599190615791565b91505b8080610c67906157c5565b915050610ba3565b505b60005b600e604051610c82906154e1565b908152602001604051809103902054811015610dec576015604051806080016040528060035481526020016040518060400160405280600481526020017f746174610000000000000000000000000000000000000000000000000000000081525081526020016040518060400160405280600781526020017f766564616e74610000000000000000000000000000000000000000000000000081525081526020016009604051610d31906154e1565b9081526020016040518091039020600001548152509080600181540180825580915050600190039060005260206000209060040201600090919091909150600082015181600001556020820151816001019080519060200190610d959291906148d2565b506040820151816002019080519060200190610db29291906148d2565b50606082015181600301555050600160036000828254610dd2919061573b565b925050819055508080610de4906157c5565b915050610c74565b5060005b600e604051610dfe90615542565b908152602001604051809103902054811015610f68576016604051806080016040528060035481526020016040518060400160405280600681526020017f6d6172757469000000000000000000000000000000000000000000000000000081525081526020016040518060400160405280600781526020017f766564616e74610000000000000000000000000000000000000000000000000081525081526020016009604051610ead90615542565b9081526020016040518091039020600001548152509080600181540180825580915050600190039060005260206000209060040201600090919091909150600082015181600001556020820151816001019080519060200190610f119291906148d2565b506040820151816002019080519060200190610f2e9291906148d2565b50606082015181600301555050600160036000828254610f4e919061573b565b925050819055508080610f60906157c5565b915050610df0565b5060005b600f604051610f7a906154e1565b9081526020016040518091039020548110156110e4576013604051806080016040528060025481526020016040518060400160405280600481526020017f746174610000000000000000000000000000000000000000000000000000000081525081526020016040518060400160405280600381526020017f6d7266000000000000000000000000000000000000000000000000000000000081525081526020016008604051611029906154e1565b908152602001604051809103902060000154815250908060018154018082558091505060019003906000526020600020906004020160009091909190915060008201518160000155602082015181600101908051906020019061108d9291906148d2565b5060408201518160020190805190602001906110aa9291906148d2565b506060820151816003015550506001600260008282546110ca919061573b565b9250508190555080806110dc906157c5565b915050610f6c565b5060005b60106040516110f690615542565b908152602001604051809103902054811015611260576014604051806080016040528060025481526020016040518060400160405280600681526020017f6d6172757469000000000000000000000000000000000000000000000000000081525081526020016040518060400160405280600481526020017f63656174000000000000000000000000000000000000000000000000000000008152508152602001600a6040516111a590615542565b90815260200160405180910390206000015481525090806001815401808255809150506001900390600052602060002090600402016000909190919091506000820151816000015560208201518160010190805190602001906112099291906148d2565b5060408201518160020190805190602001906112269291906148d2565b50606082015181600301555050600160026000828254611246919061573b565b925050819055508080611258906157c5565b9150506110e8565b5060016000806101000a81548160ff0219169083151502179055505050565b60068260405161128f919061547e565b908152602001604051809103902060009054906101000a900473ffffffffffffffffffffffffffffffffffffffff1673ffffffffffffffffffffffffffffffffffffffff163373ffffffffffffffffffffffffffffffffffffffff161461132b576040517f08c379a00000000000000000000000000000000000000000000000000000000081526004016113229061587f565b60405180910390fd5b8060078360405161133c919061547e565b9081526020016040518091039020819055505050565b6006818051602081018201805184825260208301602085012081835280955050505050506000915054906101000a900473ffffffffffffffffffffffffffffffffffffffff1681565b601481815481106113ab57600080fd5b90600052602060002090600402016000915090508060000154908060010180546113d4906158ce565b80601f0160208091040260200160405190810160405280929190818152602001828054611400906158ce565b801561144d5780601f106114225761010080835404028352916020019161144d565b820191906000526020600020905b81548152906001019060200180831161143057829003601f168201915b505050505090806002018054611462906158ce565b80601f016020809104026020016040519081016040528092919081815260200182805461148e906158ce565b80156114db5780601f106114b0576101008083540402835291602001916114db565b820191906000526020600020905b8154815290600101906020018083116114be57829003601f168201915b5050505050908060030154905084565b6006836040516114fb919061547e565b908152602001604051809103902060009054906101000a900473ffffffffffffffffffffffffffffffffffffffff1673ffffffffffffffffffffffffffffffffffffffff163373ffffffffffffffffffffffffffffffffffffffff1614611597576040517f08c379a000000000000000000000000000000000000000000000000000000000815260040161158e90615971565b60405180910390fd5b600082101580156115a9575060008110155b6115e8576040517f08c379a00000000000000000000000000000000000000000000000000000000081526004016115df906159dd565b60405180910390fd5b604051806040016040528083815260200182815250600a8460405161160d919061547e565b908152602001604051809103902060008201518160000155602082015181600101559050506001600c84604051611644919061547e565b908152602001604051809103902060006101000a81548160ff021916908315150217905550505050565b60068360405161167e919061547e565b908152602001604051809103902060009054906101000a900473ffffffffffffffffffffffffffffffffffffffff1673ffffffffffffffffffffffffffffffffffffffff163373ffffffffffffffffffffffffffffffffffffffff161461171a576040517f08c379a000000000000000000000000000000000000000000000000000000000815260040161171190615971565b60405180910390fd5b6000821015801561172c575060008110155b61176b576040517f08c379a0000000000000000000000000000000000000000000000000000000008152600401611762906159dd565b60405180910390fd5b604051806040016040528083815260200182815250600984604051611790919061547e565b908152602001604051809103902060008201518160000155602082015181600101559050506001600d846040516117c7919061547e565b908152602001604051809103902060006101000a81548160ff021916908315150217905550505050565b6000600b604051611801906154e1565b908152602001604051809103902060009054906101000a900460ff16801561184f5750600d604051611832906154e1565b908152602001604051809103902060009054906101000a900460ff165b80156118815750600d60405161186490615542565b908152602001604051809103902060009054906101000a900460ff165b80156118b35750600c60405161189690615542565b908152602001604051809103902060009054906101000a900460ff165b6118f2576040517f08c379a00000000000000000000000000000000000000000000000000000000081526004016118e9906155c9565b60405180910390fd5b6001151560008054906101000a900460ff16151514611946576040517f08c379a000000000000000000000000000000000000000000000000000000000815260040161193d90615a6f565b60405180910390fd5b60011515600060019054906101000a900460ff1615151461199c576040517f08c379a000000000000000000000000000000000000000000000000000000000815260040161199390615adb565b60405180910390fd5b816040516020016119ad919061547e565b604051602081830303815290604052805190602001206040516020016119d290615542565b60405160208183030381529060405280519060200120036119fa576018805490509050611a5d565b81604051602001611a0b919061547e565b60405160208183030381529060405280519060200120604051602001611a30906154e1565b6040516020818303038152906040528051906020012003611a58576017805490509050611a5d565b600090505b919050565b6000600782604051611a74919061547e565b9081526020016040518091039020549050919050565b60188181548110611a9a57600080fd5b90600052602060002090600c0201600091509050806000015490806001018054611ac3906158ce565b80601f0160208091040260200160405190810160405280929190818152602001828054611aef906158ce565b8015611b3c5780601f10611b1157610100808354040283529160200191611b3c565b820191906000526020600020905b815481529060010190602001808311611b1f57829003601f168201915b5050505050908060020160405180608001604052908160008201548152602001600182018054611b6b906158ce565b80601f0160208091040260200160405190810160405280929190818152602001828054611b97906158ce565b8015611be45780601f10611bb957610100808354040283529160200191611be4565b820191906000526020600020905b815481529060010190602001808311611bc757829003601f168201915b50505050508152602001600282018054611bfd906158ce565b80601f0160208091040260200160405190810160405280929190818152602001828054611c29906158ce565b8015611c765780601f10611c4b57610100808354040283529160200191611c76565b820191906000526020600020905b815481529060010190602001808311611c5957829003601f168201915b50505050508152602001600382015481525050908060060160405180608001604052908160008201548152602001600182018054611cb3906158ce565b80601f0160208091040260200160405190810160405280929190818152602001828054611cdf906158ce565b8015611d2c5780601f10611d0157610100808354040283529160200191611d2c565b820191906000526020600020905b815481529060010190602001808311611d0f57829003601f168201915b50505050508152602001600282018054611d45906158ce565b80601f0160208091040260200160405190810160405280929190818152602001828054611d71906158ce565b8015611dbe5780601f10611d9357610100808354040283529160200191611dbe565b820191906000526020600020905b815481529060010190602001808311611da157829003601f168201915b505050505081526020016003820154815250509080600a01549080600b0160009054906101000a900460ff16905086565b600683604051611dff919061547e565b908152602001604051809103902060009054906101000a900473ffffffffffffffffffffffffffffffffffffffff1673ffffffffffffffffffffffffffffffffffffffff163373ffffffffffffffffffffffffffffffffffffffff1614611e9b576040517f08c379a0000000000000000000000000000000000000000000000000000000008152600401611e9290615971565b60405180910390fd5b60008210158015611ead575060008110155b611eec576040517f08c379a0000000000000000000000000000000000000000000000000000000008152600401611ee3906159dd565b60405180910390fd5b604051806040016040528083815260200182815250600884604051611f11919061547e565b908152602001604051809103902060008201518160000155602082015181600101559050506001600b84604051611f48919061547e565b908152602001604051809103902060006101000a81548160ff021916908315150217905550505050565b6000600682604051611f84919061547e565b908152602001604051809103902060009054906101000a900473ffffffffffffffffffffffffffffffffffffffff169050919050565b6007818051602081018201805184825260208301602085012081835280955050505050506000915090505481565b600060029054906101000a900473ffffffffffffffffffffffffffffffffffffffff1681565b6013818154811061201e57600080fd5b9060005260206000209060040201600091509050806000015490806001018054612047906158ce565b80601f0160208091040260200160405190810160405280929190818152602001828054612073906158ce565b80156120c05780601f10612095576101008083540402835291602001916120c0565b820191906000526020600020905b8154815290600101906020018083116120a357829003601f168201915b5050505050908060020180546120d5906158ce565b80601f0160208091040260200160405190810160405280929190818152602001828054612101906158ce565b801561214e5780601f106121235761010080835404028352916020019161214e565b820191906000526020600020905b81548152906001019060200180831161213157829003601f168201915b5050505050908060030154905084565b6121666148b8565b600b604051612174906154e1565b908152602001604051809103902060009054906101000a900460ff1680156121c25750600d6040516121a5906154e1565b908152602001604051809103902060009054906101000a900460ff165b80156121f45750600d6040516121d790615542565b908152602001604051809103902060009054906101000a900460ff165b80156122265750600c60405161220990615542565b908152602001604051809103902060009054906101000a900460ff165b612265576040517f08c379a000000000000000000000000000000000000000000000000000000000815260040161225c906155c9565b60405180910390fd5b600882604051612275919061547e565b9081526020016040518091039020604051806040016040529081600082015481526020016001820154815250509050919050565b6000600b6040516122b9906154e1565b908152602001604051809103902060009054906101000a900460ff1680156123075750600d6040516122ea906154e1565b908152602001604051809103902060009054906101000a900460ff165b80156123395750600d60405161231c90615542565b908152602001604051809103902060009054906101000a900460ff165b801561236b5750600c60405161234e90615542565b908152602001604051809103902060009054906101000a900460ff165b6123aa576040517f08c379a00000000000000000000000000000000000000000000000000000000081526004016123a1906155c9565b60405180910390fd5b6001151560008054906101000a900460ff161515146123fe576040517f08c379a00000000000000000000000000000000000000000000000000000000081526004016123f590615a6f565b60405180910390fd5b60011515600060019054906101000a900460ff16151514612454576040517f08c379a000000000000000000000000000000000000000000000000000000000815260040161244b90615adb565b60405180910390fd5b6000600684604051612466919061547e565b908152602001604051809103902060009054906101000a900473ffffffffffffffffffffffffffffffffffffffff1673ffffffffffffffffffffffffffffffffffffffff163373ffffffffffffffffffffffffffffffffffffffff1614612502576040517f08c379a00000000000000000000000000000000000000000000000000000000081526004016124f990615b6d565b60405180910390fd5b82604051602001612513919061547e565b6040516020818303038152906040528051906020012060405160200161253890615542565b604051602081830303815290604052805190602001200361275a576018805490506005541061259c576040517f08c379a000000000000000000000000000000000000000000000000000000000815260040161259390615bd9565b60405180910390fd5b600015156018600554815481106125b6576125b5615bf9565b5b90600052602060002090600c0201600b0160009054906101000a900460ff16151514612617576040517f08c379a000000000000000000000000000000000000000000000000000000000815260040161260e90615c74565b60405180910390fd5b600160186005548154811061262f5761262e615bf9565b5b90600052602060002090600c0201600b0160006101000a81548160ff021916908315150217905550336011600060186005548154811061267257612671615bf9565b5b90600052602060002090600c020160000154815260200190815260200160002060006101000a81548173ffffffffffffffffffffffffffffffffffffffff021916908373ffffffffffffffffffffffffffffffffffffffff1602179055506018600554815481106126e6576126e5615bf9565b5b90600052602060002090600c020160000154905060016005600082825461270d919061573b565b92505081905550601284604051612724919061547e565b90815260200160405180910390208190806001815401808255809150506001900390600052602060002001600090919091909150555b8260405160200161276b919061547e565b60405160208183030381529060405280519060200120604051602001612790906154e1565b60405160208183030381529060405280519060200120036129b257601780549050600454106127f4576040517f08c379a00000000000000000000000000000000000000000000000000000000081526004016127eb90615ce0565b60405180910390fd5b6000151560176004548154811061280e5761280d615bf9565b5b90600052602060002090600c0201600b0160009054906101000a900460ff1615151461286f576040517f08c379a000000000000000000000000000000000000000000000000000000000815260040161286690615c74565b60405180910390fd5b600160176004548154811061288757612886615bf9565b5b90600052602060002090600c0201600b0160006101000a81548160ff02191690831515021790555033601160006017600454815481106128ca576128c9615bf9565b5b90600052602060002090600c020160000154815260200190815260200160002060006101000a81548173ffffffffffffffffffffffffffffffffffffffff021916908373ffffffffffffffffffffffffffffffffffffffff16021790555060176004548154811061293e5761293d615bf9565b5b90600052602060002090600c0201600001549050600160046000828254612965919061573b565b9250508190555060128460405161297c919061547e565b90815260200160405180910390208190806001815401808255809150506001900390600052602060002001600090919091909150555b8091505092915050565b6060600b6040516129cc906154e1565b908152602001604051809103902060009054906101000a900460ff168015612a1a5750600d6040516129fd906154e1565b908152602001604051809103902060009054906101000a900460ff165b8015612a4c5750600d604051612a2f90615542565b908152602001604051809103902060009054906101000a900460ff165b8015612a7e5750600c604051612a6190615542565b908152602001604051809103902060009054906101000a900460ff165b612abd576040517f08c379a0000000000000000000000000000000000000000000000000000000008152600401612ab4906155c9565b60405180910390fd5b6001151560008054906101000a900460ff16151514612b11576040517f08c379a0000000000000000000000000000000000000000000000000000000008152600401612b0890615a6f565b60405180910390fd5b60011515600060019054906101000a900460ff16151514612b67576040517f08c379a0000000000000000000000000000000000000000000000000000000008152600401612b5e90615adb565b60405180910390fd5b601282604051612b77919061547e565b9081526020016040518091039020805480602002602001604051908101604052809291908181526020018280548015612bcf57602002820191906000526020600020905b815481526020019060010190808311612bbb575b50505050509050919050565b600060029054906101000a900473ffffffffffffffffffffffffffffffffffffffff1673ffffffffffffffffffffffffffffffffffffffff163373ffffffffffffffffffffffffffffffffffffffff1614612c6b576040517f08c379a0000000000000000000000000000000000000000000000000000000008152600401612c6290615422565b60405180910390fd5b600b604051612c79906154e1565b908152602001604051809103902060009054906101000a900460ff168015612cc75750600d604051612caa906154e1565b908152602001604051809103902060009054906101000a900460ff165b8015612cf95750600d604051612cdc90615542565b908152602001604051809103902060009054906101000a900460ff165b8015612d2b5750600c604051612d0e90615542565b908152602001604051809103902060009054906101000a900460ff165b612d6a576040517f08c379a0000000000000000000000000000000000000000000000000000000008152600401612d61906155c9565b60405180910390fd5b6001151560008054906101000a900460ff16151514612dbe576040517f08c379a0000000000000000000000000000000000000000000000000000000008152600401612db590615a6f565b60405180910390fd5b60005b612dd560148054905060168054905061489d565b8110156132bc5760186040518060c0016040528060015481526020016040518060400160405280600681526020017f6d61727574690000000000000000000000000000000000000000000000000000815250815260200160148481548110612e4057612e3f615bf9565b5b906000526020600020906004020160405180608001604052908160008201548152602001600182018054612e73906158ce565b80601f0160208091040260200160405190810160405280929190818152602001828054612e9f906158ce565b8015612eec5780601f10612ec157610100808354040283529160200191612eec565b820191906000526020600020905b815481529060010190602001808311612ecf57829003601f168201915b50505050508152602001600282018054612f05906158ce565b80601f0160208091040260200160405190810160405280929190818152602001828054612f31906158ce565b8015612f7e5780601f10612f5357610100808354040283529160200191612f7e565b820191906000526020600020905b815481529060010190602001808311612f6157829003601f168201915b50505050508152602001600382015481525050815260200160168481548110612faa57612fa9615bf9565b5b906000526020600020906004020160405180608001604052908160008201548152602001600182018054612fdd906158ce565b80601f0160208091040260200160405190810160405280929190818152602001828054613009906158ce565b80156130565780601f1061302b57610100808354040283529160200191613056565b820191906000526020600020905b81548152906001019060200180831161303957829003601f168201915b5050505050815260200160028201805461306f906158ce565b80601f016020809104026020016040519081016040528092919081815260200182805461309b906158ce565b80156130e85780601f106130bd576101008083540402835291602001916130e8565b820191906000526020600020905b8154815290600101906020018083116130cb57829003601f168201915b5050505050815260200160038201548152505081526020016016848154811061311457613113615bf9565b5b9060005260206000209060040201600301546014858154811061313a57613139615bf9565b5b906000526020600020906004020160030154613156919061573b565b81526020016000151581525090806001815401808255809150506001900390600052602060002090600c02016000909190919091506000820151816000015560208201518160010190805190602001906131b19291906148d2565b506040820151816002016000820151816000015560208201518160010190805190602001906131e19291906148d2565b5060408201518160020190805190602001906131fe9291906148d2565b5060608201518160030155505060608201518160060160008201518160000155602082015181600101908051906020019061323a9291906148d2565b5060408201518160020190805190602001906132579291906148d2565b50606082015181600301555050608082015181600a015560a082015181600b0160006101000a81548160ff021916908315150217905550505060018060008282546132a2919061573b565b9250508190555080806132b4906157c5565b915050612dc1565b5060005b6132d460138054905060158054905061489d565b8110156137bb5760176040518060c0016040528060015481526020016040518060400160405280600481526020017f746174610000000000000000000000000000000000000000000000000000000081525081526020016013848154811061333f5761333e615bf9565b5b906000526020600020906004020160405180608001604052908160008201548152602001600182018054613372906158ce565b80601f016020809104026020016040519081016040528092919081815260200182805461339e906158ce565b80156133eb5780601f106133c0576101008083540402835291602001916133eb565b820191906000526020600020905b8154815290600101906020018083116133ce57829003601f168201915b50505050508152602001600282018054613404906158ce565b80601f0160208091040260200160405190810160405280929190818152602001828054613430906158ce565b801561347d5780601f106134525761010080835404028352916020019161347d565b820191906000526020600020905b81548152906001019060200180831161346057829003601f168201915b505050505081526020016003820154815250508152602001601584815481106134a9576134a8615bf9565b5b9060005260206000209060040201604051806080016040529081600082015481526020016001820180546134dc906158ce565b80601f0160208091040260200160405190810160405280929190818152602001828054613508906158ce565b80156135555780601f1061352a57610100808354040283529160200191613555565b820191906000526020600020905b81548152906001019060200180831161353857829003601f168201915b5050505050815260200160028201805461356e906158ce565b80601f016020809104026020016040519081016040528092919081815260200182805461359a906158ce565b80156135e75780601f106135bc576101008083540402835291602001916135e7565b820191906000526020600020905b8154815290600101906020018083116135ca57829003601f168201915b5050505050815260200160038201548152505081526020016015848154811061361357613612615bf9565b5b9060005260206000209060040201600301546013858154811061363957613638615bf9565b5b906000526020600020906004020160030154613655919061573b565b81526020016000151581525090806001815401808255809150506001900390600052602060002090600c02016000909190919091506000820151816000015560208201518160010190805190602001906136b09291906148d2565b506040820151816002016000820151816000015560208201518160010190805190602001906136e09291906148d2565b5060408201518160020190805190602001906136fd9291906148d2565b506060820151816003015550506060820151816006016000820151816000015560208201518160010190805190602001906137399291906148d2565b5060408201518160020190805190602001906137569291906148d2565b50606082015181600301555050608082015181600a015560a082015181600b0160006101000a81548160ff021916908315150217905550505060018060008282546137a1919061573b565b9250508190555080806137b3906157c5565b9150506132c0565b506001600060016101000a81548160ff021916908315150217905550565b6137e1614958565b600b6040516137ef906154e1565b908152602001604051809103902060009054906101000a900460ff16801561383d5750600d604051613820906154e1565b908152602001604051809103902060009054906101000a900460ff165b801561386f5750600d60405161385290615542565b908152602001604051809103902060009054906101000a900460ff165b80156138a15750600c60405161388490615542565b908152602001604051809103902060009054906101000a900460ff165b6138e0576040517f08c379a00000000000000000000000000000000000000000000000000000000081526004016138d7906155c9565b60405180910390fd5b6001151560008054906101000a900460ff16151514613934576040517f08c379a000000000000000000000000000000000000000000000000000000000815260040161392b90615a6f565b60405180910390fd5b60011515600060019054906101000a900460ff1615151461398a576040517f08c379a000000000000000000000000000000000000000000000000000000000815260040161398190615adb565b60405180910390fd5b613992614958565b60005b601880549050811015613d6a5783601882815481106139b7576139b6615bf9565b5b90600052602060002090600c02016000015403613d5757601881815481106139e2576139e1615bf9565b5b90600052602060002090600c02016040518060c001604052908160008201548152602001600182018054613a15906158ce565b80601f0160208091040260200160405190810160405280929190818152602001828054613a41906158ce565b8015613a8e5780601f10613a6357610100808354040283529160200191613a8e565b820191906000526020600020905b815481529060010190602001808311613a7157829003601f168201915b505050505081526020016002820160405180608001604052908160008201548152602001600182018054613ac1906158ce565b80601f0160208091040260200160405190810160405280929190818152602001828054613aed906158ce565b8015613b3a5780601f10613b0f57610100808354040283529160200191613b3a565b820191906000526020600020905b815481529060010190602001808311613b1d57829003601f168201915b50505050508152602001600282018054613b53906158ce565b80601f0160208091040260200160405190810160405280929190818152602001828054613b7f906158ce565b8015613bcc5780601f10613ba157610100808354040283529160200191613bcc565b820191906000526020600020905b815481529060010190602001808311613baf57829003601f168201915b5050505050815260200160038201548152505081526020016006820160405180608001604052908160008201548152602001600182018054613c0d906158ce565b80601f0160208091040260200160405190810160405280929190818152602001828054613c39906158ce565b8015613c865780601f10613c5b57610100808354040283529160200191613c86565b820191906000526020600020905b815481529060010190602001808311613c6957829003601f168201915b50505050508152602001600282018054613c9f906158ce565b80601f0160208091040260200160405190810160405280929190818152602001828054613ccb906158ce565b8015613d185780601f10613ced57610100808354040283529160200191613d18565b820191906000526020600020905b815481529060010190602001808311613cfb57829003601f168201915b505050505081526020016003820154815250508152602001600a8201548152602001600b820160009054906101000a900460ff16151515158152505091505b8080613d62906157c5565b915050613995565b5060005b601780549050811015614143578360178281548110613d9057613d8f615bf9565b5b90600052602060002090600c020160000154036141305760178181548110613dbb57613dba615bf9565b5b90600052602060002090600c02016040518060c001604052908160008201548152602001600182018054613dee906158ce565b80601f0160208091040260200160405190810160405280929190818152602001828054613e1a906158ce565b8015613e675780601f10613e3c57610100808354040283529160200191613e67565b820191906000526020600020905b815481529060010190602001808311613e4a57829003601f168201915b505050505081526020016002820160405180608001604052908160008201548152602001600182018054613e9a906158ce565b80601f0160208091040260200160405190810160405280929190818152602001828054613ec6906158ce565b8015613f135780601f10613ee857610100808354040283529160200191613f13565b820191906000526020600020905b815481529060010190602001808311613ef657829003601f168201915b50505050508152602001600282018054613f2c906158ce565b80601f0160208091040260200160405190810160405280929190818152602001828054613f58906158ce565b8015613fa55780601f10613f7a57610100808354040283529160200191613fa5565b820191906000526020600020905b815481529060010190602001808311613f8857829003601f168201915b5050505050815260200160038201548152505081526020016006820160405180608001604052908160008201548152602001600182018054613fe6906158ce565b80601f0160208091040260200160405190810160405280929190818152602001828054614012906158ce565b801561405f5780601f106140345761010080835404028352916020019161405f565b820191906000526020600020905b81548152906001019060200180831161404257829003601f168201915b50505050508152602001600282018054614078906158ce565b80601f01602080910402602001604051908101604052809291908181526020018280546140a4906158ce565b80156140f15780601f106140c6576101008083540402835291602001916140f1565b820191906000526020600020905b8154815290600101906020018083116140d457829003601f168201915b505050505081526020016003820154815250508152602001600a8201548152602001600b820160009054906101000a900460ff16151515158152505091505b808061413b906157c5565b915050613d6e565b5080915050919050565b6015818154811061415d57600080fd5b9060005260206000209060040201600091509050806000015490806001018054614186906158ce565b80601f01602080910402602001604051908101604052809291908181526020018280546141b2906158ce565b80156141ff5780601f106141d4576101008083540402835291602001916141ff565b820191906000526020600020905b8154815290600101906020018083116141e257829003601f168201915b505050505090806002018054614214906158ce565b80601f0160208091040260200160405190810160405280929190818152602001828054614240906158ce565b801561428d5780601f106142625761010080835404028352916020019161428d565b820191906000526020600020905b81548152906001019060200180831161427057829003601f168201915b5050505050908060030154905084565b601781815481106142ad57600080fd5b90600052602060002090600c02016000915090508060000154908060010180546142d6906158ce565b80601f0160208091040260200160405190810160405280929190818152602001828054614302906158ce565b801561434f5780601f106143245761010080835404028352916020019161434f565b820191906000526020600020905b81548152906001019060200180831161433257829003601f168201915b505050505090806002016040518060800160405290816000820154815260200160018201805461437e906158ce565b80601f01602080910402602001604051908101604052809291908181526020018280546143aa906158ce565b80156143f75780601f106143cc576101008083540402835291602001916143f7565b820191906000526020600020905b8154815290600101906020018083116143da57829003601f168201915b50505050508152602001600282018054614410906158ce565b80601f016020809104026020016040519081016040528092919081815260200182805461443c906158ce565b80156144895780601f1061445e57610100808354040283529160200191614489565b820191906000526020600020905b81548152906001019060200180831161446c57829003601f168201915b505050505081526020016003820154815250509080600601604051806080016040529081600082015481526020016001820180546144c6906158ce565b80601f01602080910402602001604051908101604052809291908181526020018280546144f2906158ce565b801561453f5780601f106145145761010080835404028352916020019161453f565b820191906000526020600020905b81548152906001019060200180831161452257829003601f168201915b50505050508152602001600282018054614558906158ce565b80601f0160208091040260200160405190810160405280929190818152602001828054614584906158ce565b80156145d15780601f106145a6576101008083540402835291602001916145d1565b820191906000526020600020905b8154815290600101906020018083116145b457829003601f168201915b505050505081526020016003820154815250509080600a01549080600b0160009054906101000a900460ff16905086565b61460a6148b8565b600b604051614618906154e1565b908152602001604051809103902060009054906101000a900460ff1680156146665750600d604051614649906154e1565b908152602001604051809103902060009054906101000a900460ff165b80156146985750600d60405161467b90615542565b908152602001604051809103902060009054906101000a900460ff165b80156146ca5750600c6040516146ad90615542565b908152602001604051809103902060009054906101000a900460ff165b614709576040517f08c379a0000000000000000000000000000000000000000000000000000000008152600401614700906155c9565b60405180910390fd5b600a82604051614719919061547e565b9081526020016040518091039020604051806040016040529081600082015481526020016001820154815250509050919050565b6016818154811061475d57600080fd5b9060005260206000209060040201600091509050806000015490806001018054614786906158ce565b80601f01602080910402602001604051908101604052809291908181526020018280546147b2906158ce565b80156147ff5780601f106147d4576101008083540402835291602001916147ff565b820191906000526020600020905b8154815290600101906020018083116147e257829003601f168201915b505050505090806002018054614814906158ce565b80601f0160208091040260200160405190810160405280929190818152602001828054614840906158ce565b801561488d5780601f106148625761010080835404028352916020019161488d565b820191906000526020600020905b81548152906001019060200180831161487057829003601f168201915b5050505050908060030154905084565b60008183116148ae578290506148b2565b8190505b92915050565b604051806040016040528060008152602001600081525090565b8280546148de906158ce565b90600052602060002090601f0160209004810192826149005760008555614947565b82601f1061491957805160ff1916838001178555614947565b82800160010185558215614947579182015b8281111561494657825182559160200191906001019061492b565b5b509050614954919061499c565b5090565b6040518060c0016040528060008152602001606081526020016149796149b9565b81526020016149866149e1565b8152602001600081526020016000151581525090565b5b808211156149b557600081600090555060010161499d565b5090565b6040518060800160405280600081526020016060815260200160608152602001600081525090565b6040518060800160405280600081526020016060815260200160608152602001600081525090565b6000604051905090565b600080fd5b600080fd5b600080fd5b600080fd5b6000601f19601f8301169050919050565b7f4e487b7100000000000000000000000000000000000000000000000000000000600052604160045260246000fd5b614a7082614a27565b810181811067ffffffffffffffff82111715614a8f57614a8e614a38565b5b80604052505050565b6000614aa2614a09565b9050614aae8282614a67565b919050565b600067ffffffffffffffff821115614ace57614acd614a38565b5b614ad782614a27565b9050602081019050919050565b82818337600083830152505050565b6000614b06614b0184614ab3565b614a98565b905082815260208101848484011115614b2257614b21614a22565b5b614b2d848285614ae4565b509392505050565b600082601f830112614b4a57614b49614a1d565b5b8135614b5a848260208601614af3565b91505092915050565b600073ffffffffffffffffffffffffffffffffffffffff82169050919050565b6000614b8e82614b63565b9050919050565b614b9e81614b83565b8114614ba957600080fd5b50565b600081359050614bbb81614b95565b92915050565b60008060408385031215614bd857614bd7614a13565b5b600083013567ffffffffffffffff811115614bf657614bf5614a18565b5b614c0285828601614b35565b9250506020614c1385828601614bac565b9150509250929050565b600060208284031215614c3357614c32614a13565b5b600082013567ffffffffffffffff811115614c5157614c50614a18565b5b614c5d84828501614b35565b91505092915050565b6000819050919050565b614c7981614c66565b82525050565b604082016000820151614c956000850182614c70565b506020820151614ca86020850182614c70565b50505050565b6000604082019050614cc36000830184614c7f565b92915050565b614cd281614c66565b8114614cdd57600080fd5b50565b600081359050614cef81614cc9565b92915050565b60008060408385031215614d0c57614d0b614a13565b5b600083013567ffffffffffffffff811115614d2a57614d29614a18565b5b614d3685828601614b35565b9250506020614d4785828601614ce0565b9150509250929050565b614d5a81614b83565b82525050565b6000602082019050614d756000830184614d51565b92915050565b600060208284031215614d9157614d90614a13565b5b6000614d9f84828501614ce0565b91505092915050565b614db181614c66565b82525050565b600081519050919050565b600082825260208201905092915050565b60005b83811015614df1578082015181840152602081019050614dd6565b83811115614e00576000848401525b50505050565b6000614e1182614db7565b614e1b8185614dc2565b9350614e2b818560208601614dd3565b614e3481614a27565b840191505092915050565b6000608082019050614e546000830187614da8565b8181036020830152614e668186614e06565b90508181036040830152614e7a8185614e06565b9050614e896060830184614da8565b95945050505050565b600080600060608486031215614eab57614eaa614a13565b5b600084013567ffffffffffffffff811115614ec957614ec8614a18565b5b614ed586828701614b35565b9350506020614ee686828701614ce0565b9250506040614ef786828701614ce0565b9150509250925092565b6000602082019050614f166000830184614da8565b92915050565b600082825260208201905092915050565b6000614f3882614db7565b614f428185614f1c565b9350614f52818560208601614dd3565b614f5b81614a27565b840191505092915050565b6000608083016000830151614f7e6000860182614c70565b5060208301518482036020860152614f968282614f2d565b91505060408301518482036040860152614fb08282614f2d565b9150506060830151614fc56060860182614c70565b508091505092915050565b6000608083016000830151614fe86000860182614c70565b50602083015184820360208601526150008282614f2d565b9150506040830151848203604086015261501a8282614f2d565b915050606083015161502f6060860182614c70565b508091505092915050565b60008115159050919050565b61504f8161503a565b82525050565b600060c08201905061506a6000830189614da8565b818103602083015261507c8188614e06565b905081810360408301526150908187614f66565b905081810360608301526150a48186614fd0565b90506150b36080830185614da8565b6150c060a0830184615046565b979650505050505050565b600080604083850312156150e2576150e1614a13565b5b600083013567ffffffffffffffff811115615100576150ff614a18565b5b61510c85828601614b35565b925050602083013567ffffffffffffffff81111561512d5761512c614a18565b5b61513985828601614b35565b9150509250929050565b600081519050919050565b600082825260208201905092915050565b6000819050602082019050919050565b600061517b8383614c70565b60208301905092915050565b6000602082019050919050565b600061519f82615143565b6151a9818561514e565b93506151b48361515f565b8060005b838110156151e55781516151cc888261516f565b97506151d783615187565b9250506001810190506151b8565b5085935050505092915050565b6000602082019050818103600083015261520c8184615194565b905092915050565b600060808301600083015161522c6000860182614c70565b50602083015184820360208601526152448282614f2d565b9150506040830151848203604086015261525e8282614f2d565b91505060608301516152736060860182614c70565b508091505092915050565b60006080830160008301516152966000860182614c70565b50602083015184820360208601526152ae8282614f2d565b915050604083015184820360408601526152c88282614f2d565b91505060608301516152dd6060860182614c70565b508091505092915050565b6152f18161503a565b82525050565b600060c08301600083015161530f6000860182614c70565b50602083015184820360208601526153278282614f2d565b915050604083015184820360408601526153418282615214565b9150506060830151848203606086015261535b828261527e565b91505060808301516153706080860182614c70565b5060a083015161538360a08601826152e8565b508091505092915050565b600060208201905081810360008301526153a881846152f7565b905092915050565b7f546869732066756e6374696f6e206973207265737472696374656420746f207460008201527f686520636f6e74726163742773206f776e657200000000000000000000000000602082015250565b600061540c603383614dc2565b9150615417826153b0565b604082019050919050565b6000602082019050818103600083015261543b816153ff565b9050919050565b600081905092915050565b600061545882614db7565b6154628185615442565b9350615472818560208601614dd3565b80840191505092915050565b600061548a828461544d565b915081905092915050565b7f7461746100000000000000000000000000000000000000000000000000000000600082015250565b60006154cb600483615442565b91506154d682615495565b600482019050919050565b60006154ec826154be565b9150819050919050565b7f6d61727574690000000000000000000000000000000000000000000000000000600082015250565b600061552c600683615442565b9150615537826154f6565b600682019050919050565b600061554d8261551f565b9150819050919050565b7f5468652062696464696e67206973207374696c6c20696e2070726f676573732c60008201527f20506c6561736520776169742021210000000000000000000000000000000000602082015250565b60006155b3602f83614dc2565b91506155be82615557565b604082019050919050565b600060208201905081810360008301526155e2816155a6565b9050919050565b7f6d72660000000000000000000000000000000000000000000000000000000000600082015250565b600061561f600383615442565b915061562a826155e9565b600382019050919050565b600061564082615612565b9150819050919050565b7f6365617400000000000000000000000000000000000000000000000000000000600082015250565b6000615680600483615442565b915061568b8261564a565b600482019050919050565b60006156a182615673565b9150819050919050565b7f766564616e746100000000000000000000000000000000000000000000000000600082015250565b60006156e1600783615442565b91506156ec826156ab565b600782019050919050565b6000615702826156d4565b9150819050919050565b7f4e487b7100000000000000000000000000000000000000000000000000000000600052601160045260246000fd5b600061574682614c66565b915061575183614c66565b9250827fffffffffffffffffffffffffffffffffffffffffffffffffffffffffffffffff038211156157865761578561570c565b5b828201905092915050565b600061579c82614c66565b91506157a783614c66565b9250828210156157ba576157b961570c565b5b828203905092915050565b60006157d082614c66565b91507fffffffffffffffffffffffffffffffffffffffffffffffffffffffffffffffff82036158025761580161570c565b5b600182019050919050565b7f4f6e6c792074686520706172746963756c617220737570706c6965722063616e60008201527f20736574207468656972206c696d697400000000000000000000000000000000602082015250565b6000615869603083614dc2565b91506158748261580d565b604082019050919050565b600060208201905081810360008301526158988161585c565b9050919050565b7f4e487b7100000000000000000000000000000000000000000000000000000000600052602260045260246000fd5b600060028204905060018216806158e657607f821691505b6020821081036158f9576158f861589f565b5b50919050565b7f4f6e6c792074686520706172746963756c6172206269646465722063616e207360008201527f6574207468656972206269640000000000000000000000000000000000000000602082015250565b600061595b602c83614dc2565b9150615966826158ff565b604082019050919050565b6000602082019050818103600083015261598a8161594e565b9050919050565b7f5365742050726f7065722056616c756573202100000000000000000000000000600082015250565b60006159c7601383614dc2565b91506159d282615991565b602082019050919050565b600060208201905081810360008301526159f6816159ba565b9050919050565b7f5761697420666f7220446973747269627574696f6e206f66204d61746572696160008201527f6c73212100000000000000000000000000000000000000000000000000000000602082015250565b6000615a59602483614dc2565b9150615a64826159fd565b604082019050919050565b60006020820190508181036000830152615a8881615a4c565b9050919050565b7f5761697420666f72204d616e75666163747572696e67206f6620436172732121600082015250565b6000615ac5602083614dc2565b9150615ad082615a8f565b602082019050919050565b60006020820190508181036000830152615af481615ab8565b9050919050565b7f4f6e6c792074686520706172746963756c61722062757965722063616e20627560008201527f792066726f6d2074686569722077616c6c657473000000000000000000000000602082015250565b6000615b57603483614dc2565b9150615b6282615afb565b604082019050919050565b60006020820190508181036000830152615b8681615b4a565b9050919050565b7f4e6f206361727320617661696c61626c652077697468204d6172757469202121600082015250565b6000615bc3602083614dc2565b9150615bce82615b8d565b602082019050919050565b60006020820190508181036000830152615bf281615bb6565b9050919050565b7f4e487b7100000000000000000000000000000000000000000000000000000000600052603260045260246000fd5b7f43617220616c726561647920736f6c6400000000000000000000000000000000600082015250565b6000615c5e601083614dc2565b9150615c6982615c28565b602082019050919050565b60006020820190508181036000830152615c8d81615c51565b9050919050565b7f4e6f206361727320617661696c61626c65207769746820546174612121000000600082015250565b6000615cca601d83614dc2565b9150615cd582615c94565b602082019050919050565b60006020820190508181036000830152615cf981615cbd565b905091905056fea2646970667358221220c3ff764296a93f80c86f0fd53bdc8d58e849efcb6466a973407ea9e769e2a18b64736f6c634300080e0033",
  "immutableReferences": {},
  "source": "// SPDX-License-Identifier: MIT\npragma solidity >=0.4.22 <0.9.0;\n\ncontract SupplyChain {\n\n  struct Wheel {\n      uint id;\n      string owner;\n      string supplierName;\n      uint price;\n  }\n  \n  struct CarBody {\n      uint id;\n      string owner;\n      string supplierName;\n      uint price;\n  }\n  \n  struct Car {\n    uint id;\n    string manufacturerName;\n    Wheel wheel;\n    CarBody carBody;\n    uint price;\n    bool isOwned;\n  }\n\n  struct Bid {\n    uint price;\n    uint quantity;\n  }\n  \n  bool private isDistributed;\n  bool private isManufactured;\n  address public owner;\n  uint private carId;\n  uint private wheelId;\n  uint private carBodyId;\n  uint private carIndexAvailableForSaleWithTata;\n  uint private carIndexAvailableForSaleWithMaruti;\n\n  mapping(string => address) public clients;\n  mapping(string => uint) public supplierLimit;\n  mapping(string => Bid) private bidsForMRF;\n  mapping(string => Bid) private bidsForVedanta;\n  mapping(string => Bid) private bidsForCeat;\n  mapping(string => bool) private bidStatusForMrf;\n  mapping(string => bool) private bidStatusForCeat;\n  mapping(string => bool) private bidStatusForVedanta;\n  mapping(string => uint) private distributionQuantityByVedanta;\n  mapping(string => uint) private distributionQuantityByMrf;\n  mapping(string => uint) private distributionQuantityByCeat;\n  mapping(uint => address) private customerData;\n  mapping(string => uint[]) private indexOwnedByCustomer;\n\n  Wheel[] public wheelWithTata;\n  Wheel[] public wheelWithMaruti;\n  CarBody[] public carBodyWithTata; \n  CarBody[] public carBodyWithMaruti;\n  Car[] public carsWithTata; \n  Car[] public carsWithMaruti;\n\n  modifier checkBidCompletion() {\n    require(\n     bidStatusForMrf[\"tata\"] && \n     bidStatusForVedanta[\"tata\"] &&\n     bidStatusForVedanta[\"maruti\"] &&\n     bidStatusForCeat[\"maruti\"],\n      \"The bidding is still in progess, Please wait !!\"\n    );\n    _;\n  }\n\n  modifier checkDistribution() {\n    require(\n      isDistributed == true,\n      \"Wait for Distribution of Materials!!\"\n    );\n    _;\n  }\n\n  modifier checkManufacturing() {\n    require(\n      isManufactured == true,\n      \"Wait for Manufacturing of Cars!!\"\n    );\n    _;\n  }\n\n  modifier onlyOwner() {\n    require(\n      msg.sender == owner,\n      \"This function is restricted to the contract's owner\"\n    );\n    _;\n  }\n  \n  constructor() {\n    owner = msg.sender;\n    isDistributed = false;\n    isManufactured = false;\n    carIndexAvailableForSaleWithTata = 0;\n    carIndexAvailableForSaleWithMaruti = 0;\n    carId = 1;\n    wheelId = 1;\n    carBodyId = 1;\n    bidStatusForMrf[\"tata\"] = false;\n    bidStatusForVedanta[\"tata\"] = false;\n    bidStatusForVedanta[\"maruti\"] = false;\n    bidStatusForCeat[\"maruti\"] = false;\n  }\n\n  function min(uint a, uint b) internal pure returns (uint) {\n    if (a <= b)\n      return a;\n    return b;\n  }\n\n  function setClient(string memory clientName, address clientAddress) onlyOwner public {\n    clients[clientName] = clientAddress;\n  }\n\n  function getClient(string memory clientName) public view returns (address) {\n    return clients[clientName];\n  }\n  \n  function setSupplierLimit(string memory supplierName, uint supplyLimit) public {\n    require(msg.sender == clients[supplierName], \"Only the particular supplier can set their limit\");\n    supplierLimit[supplierName] = supplyLimit;\n  }\n\n  function getSupplierLimit(string memory supplierName) public view returns (uint) {\n    return supplierLimit[supplierName];\n  }\n\n  function getCeatBid(string memory supplierName) checkBidCompletion public view returns (Bid memory) {\n    return bidsForCeat[supplierName];\n  }\n\n  function getMRFBid(string memory supplierName) checkBidCompletion public view returns (Bid memory ) {\n    return bidsForMRF[supplierName];\n  }\n\n  function getVedantaBid(string memory supplierName) checkBidCompletion public view returns (Bid memory) {\n    return bidsForVedanta[supplierName];\n  }\n  \n  function setBidForVedanta(string memory bidderName, uint price, uint quantity) public payable {\n    require(msg.sender == clients[bidderName], \"Only the particular bidder can set their bid\");\n    require(price >= 0 && quantity >= 0, \"Set Proper Values !\");\n    bidsForVedanta[bidderName] = Bid (price, quantity);\n    bidStatusForVedanta[bidderName] = true;\n  } \n\n  function setBidForMRF(string memory bidderName, uint price, uint quantity) public payable {\n    require(msg.sender == clients[bidderName], \"Only the particular bidder can set their bid\");\n    require(price >= 0 && quantity >= 0, \"Set Proper Values !\");\n    bidsForMRF[bidderName] = Bid (price, quantity);\n    bidStatusForMrf[bidderName] = true;\n  }\n\n  function setBidForCeat(string memory bidderName, uint price, uint quantity) public payable {\n    require(msg.sender == clients[bidderName], \"Only the particular bidder can set their bid\");\n    require(price >= 0 && quantity >= 0, \"Set Proper Values !\");\n    bidsForCeat[bidderName] = Bid (price, quantity);\n    bidStatusForCeat[bidderName] = true;\n  }\n\n  function distributeOptimally() public  onlyOwner checkBidCompletion {\n\n    uint wheelsForTata = min(supplierLimit[\"mrf\"],bidsForMRF[\"tata\"].quantity);\n    uint wheelsForMaruti = min(supplierLimit[\"ceat\"],bidsForCeat[\"maruti\"].quantity);\n    distributionQuantityByMrf[\"tata\"] = wheelsForTata;\n    distributionQuantityByCeat[\"maruti\"] = wheelsForMaruti;\n\n    if(wheelsForTata + wheelsForMaruti <= supplierLimit[\"vedanta\"]) \n    {\n      distributionQuantityByVedanta[\"tata\"] = wheelsForTata;\n      distributionQuantityByVedanta[\"maruti\"] = wheelsForMaruti;\n    }\n    else\n    {\n      for(uint i = 0 ;i <supplierLimit[\"vedanta\"] ; i++)\n      {\n        if(wheelsForTata > 0)\n        {\n          distributionQuantityByVedanta[\"tata\"] += 1;\n          wheelsForTata -= 1;\n        }\n        else\n        {\n          distributionQuantityByVedanta[\"maruti\"] += 1;\n          wheelsForMaruti -= 1;\n        }\n      }\n    }\n\n    for (uint i = 0 ; i < distributionQuantityByVedanta[\"tata\"] ; i++) {\n      carBodyWithTata.push(CarBody(carBodyId,\"tata\",\"vedanta\",bidsForVedanta[\"tata\"].price));\n      carBodyId += 1;\n    }\n    for (uint i = 0 ; i < distributionQuantityByVedanta[\"maruti\"] ; i++) {\n      carBodyWithMaruti.push(CarBody(carBodyId,\"maruti\",\"vedanta\",bidsForVedanta[\"maruti\"].price));\n      carBodyId += 1;\n    }\n\n    for (uint i = 0 ; i < distributionQuantityByMrf[\"tata\"] ; i++) {\n      wheelWithTata.push(Wheel(wheelId,\"tata\",\"mrf\",bidsForMRF[\"tata\"].price));\n      wheelId += 1;\n    }\n    for (uint i = 0 ; i < distributionQuantityByCeat[\"maruti\"] ; i++) {\n      wheelWithMaruti.push(Wheel(wheelId,\"maruti\",\"ceat\",bidsForCeat[\"maruti\"].price));\n      wheelId += 1;\n    }\n\n    isDistributed = true;\n  }\n\n  function manufactureCars() public  onlyOwner checkBidCompletion checkDistribution {\n    for (uint i = 0 ; i < min(wheelWithMaruti.length,carBodyWithMaruti.length) ; i++) {\n      carsWithMaruti.push(Car(carId,\"maruti\",wheelWithMaruti[i],carBodyWithMaruti[i],wheelWithMaruti[i].price+carBodyWithMaruti[i].price,false));\n      carId += 1;\n    }\n\n    // carIndexAvailableForSaleWithTata = carId;\n    for (uint i = 0 ; i < min(wheelWithTata.length,carBodyWithTata.length) ; i++) {\n      carsWithTata.push(Car(carId,\"tata\",wheelWithTata[i],carBodyWithTata[i],wheelWithTata[i].price+carBodyWithTata[i].price,false));\n      carId += 1;\n    }\n\n    isManufactured = true;\n  }\n\n  function getManufacturedCarsLimit(string memory manufacturerName) public checkBidCompletion checkDistribution checkManufacturing view returns (uint) {\n    if(keccak256(abi.encodePacked(\"maruti\")) == keccak256(abi.encodePacked(manufacturerName)))\n    {\n      return carsWithMaruti.length;\n    }\n    if(keccak256(abi.encodePacked(\"tata\")) == keccak256(abi.encodePacked(manufacturerName)))\n    {\n      return carsWithTata.length;\n    }\n    return 0;\n  }\n\n  function purchaseCar(string memory buyerName, string memory manufacturerName) public checkBidCompletion checkDistribution checkManufacturing returns (uint) {\n    uint carIdBought;\n    require(msg.sender == clients[buyerName], \"Only the particular buyer can buy from their wallets\");\n    if(keccak256(abi.encodePacked(\"maruti\")) == keccak256(abi.encodePacked(manufacturerName)))\n    {\n      require(carIndexAvailableForSaleWithMaruti < carsWithMaruti.length,\"No cars available with Maruti !!\");\n      require(carsWithMaruti[carIndexAvailableForSaleWithMaruti].isOwned == false, \"Car already sold\");\n\n      carsWithMaruti[carIndexAvailableForSaleWithMaruti].isOwned = true;\n      customerData[carsWithMaruti[carIndexAvailableForSaleWithMaruti].id] = msg.sender;\n      carIdBought = carsWithMaruti[carIndexAvailableForSaleWithMaruti].id;\n      carIndexAvailableForSaleWithMaruti += 1;\n\n      indexOwnedByCustomer[buyerName].push(carIdBought);\n    }\n\n    if(keccak256(abi.encodePacked(\"tata\")) == keccak256(abi.encodePacked(manufacturerName)))\n    {\n      require(carIndexAvailableForSaleWithTata < carsWithTata.length,\"No cars available with Tata!!\");\n      require(carsWithTata[carIndexAvailableForSaleWithTata].isOwned == false, \"Car already sold\");\n\n      carsWithTata[carIndexAvailableForSaleWithTata].isOwned = true;\n      customerData[carsWithTata[carIndexAvailableForSaleWithTata].id] = msg.sender;\n      carIdBought = carsWithTata[carIndexAvailableForSaleWithTata].id;\n      carIndexAvailableForSaleWithTata += 1;\n\n      indexOwnedByCustomer[buyerName].push(carIdBought);\n    }\n\n    return carIdBought;\n  }\n\n\n  function checkCarIndexOwnedByCustomer(string memory customerName) public checkBidCompletion checkDistribution checkManufacturing view returns (uint[] memory) {\n    return indexOwnedByCustomer[customerName];\n  }\n\n  function checkCarDetails(uint carIndex) public checkBidCompletion checkDistribution checkManufacturing view returns (Car memory) {\n    Car memory car;\n    for (uint i = 0 ; i < carsWithMaruti.length ; i++) {\n      if (carsWithMaruti[i].id == carIndex) {\n        car = carsWithMaruti[i];\n      }\n    }\n\n    for (uint i = 0 ; i < carsWithTata.length ; i++) {\n      if (carsWithTata[i].id == carIndex) {\n        car =  carsWithTata[i];\n      }\n    }\n\n    return car;\n  }\n}\n",
  "sourcePath": "/Users/rishavgoenka/Desktop/DTB/supply_chain_management/src/backend/contracts/SupplyChain.sol",
  "compiler": {
    "name": "solc",
    "version": "0.8.14+commit.80d49f37.Emscripten.clang"
  },
  "schemaVersion": "3.4.7",
  "updatedAt": "2022-12-01T06:15:51.874Z",
  "networkType": "ethereum",
  "devdoc": {
    "kind": "dev",
    "methods": {},
    "version": 1
  },
  "userdoc": {
    "kind": "user",
    "methods": {},
    "version": 1
  }
}